{
  "contractName": "LendCore",
  "abi": [
    {
      "inputs": [],
      "stateMutability": "nonpayable",
      "type": "constructor"
    },
    {
      "anonymous": false,
      "inputs": [
        {
          "indexed": false,
          "internalType": "address",
          "name": "_tokenAddress",
          "type": "address"
        },
        {
          "indexed": false,
          "internalType": "uint256",
          "name": "_tokenId",
          "type": "uint256"
        },
        {
          "indexed": false,
          "internalType": "address",
          "name": "_owner",
          "type": "address"
        }
      ],
      "name": "DepositNFT",
      "type": "event"
    },
    {
      "anonymous": false,
      "inputs": [
        {
          "indexed": false,
          "internalType": "address",
          "name": "_bider",
          "type": "address"
        },
        {
          "indexed": false,
          "internalType": "uint256",
          "name": "_bidAmount",
          "type": "uint256"
        },
        {
          "indexed": false,
          "internalType": "bytes32",
          "name": "_NFTId",
          "type": "bytes32"
        }
      ],
      "name": "NewBid",
      "type": "event"
    },
    {
      "inputs": [
        {
          "internalType": "address",
          "name": "_tokenAddress",
          "type": "address"
        },
        {
          "internalType": "uint256",
          "name": "_tokenId",
          "type": "uint256"
        }
      ],
      "name": "depositNFT",
      "outputs": [],
      "stateMutability": "nonpayable",
      "type": "function"
    },
    {
      "inputs": [
        {
          "internalType": "address",
          "name": "_tokenAddress",
          "type": "address"
        },
        {
          "internalType": "uint256",
          "name": "_tokenId",
          "type": "uint256"
        },
        {
          "internalType": "uint256",
          "name": "_bidAmount",
          "type": "uint256"
        }
      ],
      "name": "newBid",
      "outputs": [],
      "stateMutability": "nonpayable",
      "type": "function"
    }
  ],
  "bytecode": "0x608060405234801561001057600080fd5b50336000806101000a81548173ffffffffffffffffffffffffffffffffffffffff021916908373ffffffffffffffffffffffffffffffffffffffff16021790555061085c806100606000396000f3fe608060405234801561001057600080fd5b5060043610610053576000357c01000000000000000000000000000000000000000000000000000000009004806375b37d92146100585780639b5b9b1814610074575b600080fd5b610072600480360381019061006d91906104b0565b610090565b005b61008e60048036038101906100899190610470565b61026c565b005b600083836040516020016100a59291906105a4565b604051602081830303815290604052805190602001209050600060405180606001604052803373ffffffffffffffffffffffffffffffffffffffff16815260200184815260200143815250905080600260003373ffffffffffffffffffffffffffffffffffffffff1673ffffffffffffffffffffffffffffffffffffffff16815260200190815260200160002060008201518160000160006101000a81548173ffffffffffffffffffffffffffffffffffffffff021916908373ffffffffffffffffffffffffffffffffffffffff16021790555060208201518160010155604082015181600201559050506005600083815260200190815260200160002081908060018154018082558091505060019003906000526020600020906003020160009091909190915060008201518160000160006101000a81548173ffffffffffffffffffffffffffffffffffffffff021916908373ffffffffffffffffffffffffffffffffffffffff160217905550602082015181600101556040820151816002015550507fb44391af785a240b33e0caf9df01cd376f5c224acdd20dfdca1c98383b1fe6f333848460405161025d93929190610607565b60405180910390a15050505050565b61027533610433565b156102b5576040517f08c379a00000000000000000000000000000000000000000000000000000000081526004016102ac9061063e565b60405180910390fd5b3273ffffffffffffffffffffffffffffffffffffffff163373ffffffffffffffffffffffffffffffffffffffff1614610323576040517f08c379a000000000000000000000000000000000000000000000000000000000815260040161031a9061065e565b60405180910390fd5b600082826040516020016103389291906105a4565b604051602081830303815290604052805190602001209050826003600083815260200190815260200160002060000160006101000a81548173ffffffffffffffffffffffffffffffffffffffff021916908373ffffffffffffffffffffffffffffffffffffffff160217905550816003600083815260200190815260200160002060010181905550806004600060015481526020019081526020016000208190555060018060008282546103ec919061068f565b925050819055507f5f3c2121043c8a361226e2f489aee749472ac004b7a6407ed1c957b808c23cae838333604051610426939291906105d0565b60405180910390a1505050565b600080823b905060008111915050919050565b600081359050610455816107f8565b92915050565b60008135905061046a8161080f565b92915050565b6000806040838503121561048757610486610788565b5b600061049585828601610446565b92505060206104a68582860161045b565b9150509250929050565b6000806000606084860312156104c9576104c8610788565b5b60006104d786828701610446565b93505060206104e88682870161045b565b92505060406104f98682870161045b565b9150509250925092565b61050c816106e5565b82525050565b61052361051e826106e5565b61072b565b82525050565b610532816106f7565b82525050565b600061054560148361067e565b9150610550826107a6565b602082019050919050565b6000610568601a8361067e565b9150610573826107cf565b602082019050919050565b61058781610721565b82525050565b61059e61059982610721565b61074f565b82525050565b60006105b08285610512565b6014820191506105c0828461058d565b6020820191508190509392505050565b60006060820190506105e56000830186610503565b6105f2602083018561057e565b6105ff6040830184610503565b949350505050565b600060608201905061061c6000830186610503565b610629602083018561057e565b6106366040830184610529565b949350505050565b6000602082019050818103600083015261065781610538565b9050919050565b600060208201905081810360008301526106778161055b565b9050919050565b600082825260208201905092915050565b600061069a82610721565b91506106a583610721565b9250827fffffffffffffffffffffffffffffffffffffffffffffffffffffffffffffffff038211156106da576106d9610759565b5b828201905092915050565b60006106f082610701565b9050919050565b6000819050919050565b600073ffffffffffffffffffffffffffffffffffffffff82169050919050565b6000819050919050565b60006107368261073d565b9050919050565b60006107488261078d565b9050919050565b6000819050919050565b7f4e487b7100000000000000000000000000000000000000000000000000000000600052601160045260246000fd5b600080fd5b60006c0100000000000000000000000082029050919050565b7f436f6e7472616374206e6f7420616c6c6f776564000000000000000000000000600082015250565b7f50726f787920636f6e7472616374206e6f7420616c6c6f776564000000000000600082015250565b610801816106e5565b811461080c57600080fd5b50565b61081881610721565b811461082357600080fd5b5056fea2646970667358221220e470dd0e99fb2a5dbba7708d04ccb72da7e5219f54852e2a6801d19f60bda69964736f6c63430008050033",
  "immutableReferences": {},
  "source": "// SPDX-License-Identifier: MIT\npragma solidity ^0.8.0;\n\nimport \"@openzeppelin/contracts/token/ERC721/IERC721.sol\";\n\ncontract LendCore {\n    address owner;\n\n    uint256 globalId;\n\n    struct BidInfo {\n        address bider;\n        uint256 bidPrice;\n        uint256 startBlock;\n    }\n    mapping(address => BidInfo) biderInfo;\n\n    struct NFTInfo {\n        address tokenAddress;\n        uint256 tokenId;\n    }\n    mapping(bytes32 => NFTInfo) nftList;\n    mapping(uint256 => bytes32) nftOrderList;\n\n    mapping(bytes32 => BidInfo[]) matchList;\n\n    event DepositNFT(address _tokenAddress, uint256 _tokenId, address _owner);\n    event NewBid(address _bider, uint256 _bidAmount, bytes32 _NFTId);\n\n    constructor() {\n        owner = msg.sender;\n    }\n\n    modifier notContract() {\n        require(!_isContract(msg.sender), \"Contract not allowed\");\n        require(msg.sender == tx.origin, \"Proxy contract not allowed\");\n        _;\n    }\n\n    function depositNFT(address _tokenAddress, uint256 _tokenId)\n        public\n        notContract\n    {\n        bytes32 NFTID = keccak256(abi.encodePacked(_tokenAddress, _tokenId));\n\n        nftList[NFTID].tokenAddress = _tokenAddress;\n        nftList[NFTID].tokenId = _tokenId;\n\n        nftOrderList[globalId] = NFTID;\n        globalId += 1;\n        emit DepositNFT(_tokenAddress, _tokenId, msg.sender);\n    }\n\n    /**\n    @dev start a new bid\n    @param _tokenAddress: the NFT token address\n     */\n    function newBid(\n        address _tokenAddress,\n        uint256 _tokenId,\n        uint256 _bidAmount\n    ) public {\n        bytes32 NFTID = keccak256(abi.encodePacked(_tokenAddress, _tokenId));\n\n        BidInfo memory tempBiderInfo = BidInfo(\n            msg.sender,\n            _bidAmount,\n            block.number\n        );\n        biderInfo[msg.sender] = tempBiderInfo;\n\n        matchList[NFTID].push(tempBiderInfo);\n\n        emit NewBid(msg.sender, _bidAmount, NFTID);\n    }\n\n    /**\n     * @notice Check if an address is a contract\n     */\n    function _isContract(address _addr) internal view returns (bool) {\n        uint256 size;\n        assembly {\n            size := extcodesize(_addr)\n        }\n        return size > 0;\n    }\n}\n",
  "sourcePath": "/Users/liyang/src/NFT-Liquidity/NFT-Liquidity-Contract/contracts/LendCore.sol",
  "compiler": {
    "name": "solc",
    "version": "0.8.5+commit.a4f2e591.Emscripten.clang"
  },
  "schemaVersion": "3.4.3",
  "updatedAt": "2021-10-14T05:21:57.091Z",
  "devdoc": {
    "kind": "dev",
    "methods": {
      "newBid(address,uint256,uint256)": {
        "details": "start a new bid",
        "params": {
          "_tokenAddress": ": the NFT token address"
        }
      }
    },
    "version": 1
  },
  "userdoc": {
    "kind": "user",
    "methods": {},
    "version": 1
  }
}