{
  "contractName": "NFTFToken",
  "abi": [
    {
      "inputs": [],
      "stateMutability": "nonpayable",
      "type": "constructor"
    },
    {
      "anonymous": false,
      "inputs": [
        {
          "indexed": true,
          "internalType": "address",
          "name": "owner",
          "type": "address"
        },
        {
          "indexed": true,
          "internalType": "address",
          "name": "spender",
          "type": "address"
        },
        {
          "indexed": false,
          "internalType": "uint256",
          "name": "value",
          "type": "uint256"
        }
      ],
      "name": "Approval",
      "type": "event"
    },
    {
      "anonymous": false,
      "inputs": [
        {
          "indexed": false,
          "internalType": "address",
          "name": "oldMinter",
          "type": "address"
        },
        {
          "indexed": false,
          "internalType": "address",
          "name": "newMinter",
          "type": "address"
        }
      ],
      "name": "MinterChanged",
      "type": "event"
    },
    {
      "anonymous": false,
      "inputs": [
        {
          "indexed": true,
          "internalType": "address",
          "name": "from",
          "type": "address"
        },
        {
          "indexed": true,
          "internalType": "address",
          "name": "to",
          "type": "address"
        },
        {
          "indexed": false,
          "internalType": "uint256",
          "name": "value",
          "type": "uint256"
        }
      ],
      "name": "Transfer",
      "type": "event"
    },
    {
      "inputs": [
        {
          "internalType": "address",
          "name": "owner",
          "type": "address"
        },
        {
          "internalType": "address",
          "name": "spender",
          "type": "address"
        }
      ],
      "name": "allowance",
      "outputs": [
        {
          "internalType": "uint256",
          "name": "",
          "type": "uint256"
        }
      ],
      "stateMutability": "view",
      "type": "function"
    },
    {
      "inputs": [
        {
          "internalType": "address",
          "name": "spender",
          "type": "address"
        },
        {
          "internalType": "uint256",
          "name": "amount",
          "type": "uint256"
        }
      ],
      "name": "approve",
      "outputs": [
        {
          "internalType": "bool",
          "name": "",
          "type": "bool"
        }
      ],
      "stateMutability": "nonpayable",
      "type": "function"
    },
    {
      "inputs": [
        {
          "internalType": "address",
          "name": "account",
          "type": "address"
        }
      ],
      "name": "balanceOf",
      "outputs": [
        {
          "internalType": "uint256",
          "name": "",
          "type": "uint256"
        }
      ],
      "stateMutability": "view",
      "type": "function"
    },
    {
      "inputs": [],
      "name": "decimals",
      "outputs": [
        {
          "internalType": "uint8",
          "name": "",
          "type": "uint8"
        }
      ],
      "stateMutability": "view",
      "type": "function"
    },
    {
      "inputs": [
        {
          "internalType": "address",
          "name": "spender",
          "type": "address"
        },
        {
          "internalType": "uint256",
          "name": "subtractedValue",
          "type": "uint256"
        }
      ],
      "name": "decreaseAllowance",
      "outputs": [
        {
          "internalType": "bool",
          "name": "",
          "type": "bool"
        }
      ],
      "stateMutability": "nonpayable",
      "type": "function"
    },
    {
      "inputs": [
        {
          "internalType": "address",
          "name": "spender",
          "type": "address"
        },
        {
          "internalType": "uint256",
          "name": "addedValue",
          "type": "uint256"
        }
      ],
      "name": "increaseAllowance",
      "outputs": [
        {
          "internalType": "bool",
          "name": "",
          "type": "bool"
        }
      ],
      "stateMutability": "nonpayable",
      "type": "function"
    },
    {
      "inputs": [],
      "name": "name",
      "outputs": [
        {
          "internalType": "string",
          "name": "",
          "type": "string"
        }
      ],
      "stateMutability": "view",
      "type": "function"
    },
    {
      "inputs": [],
      "name": "symbol",
      "outputs": [
        {
          "internalType": "string",
          "name": "",
          "type": "string"
        }
      ],
      "stateMutability": "view",
      "type": "function"
    },
    {
      "inputs": [],
      "name": "totalSupply",
      "outputs": [
        {
          "internalType": "uint256",
          "name": "",
          "type": "uint256"
        }
      ],
      "stateMutability": "view",
      "type": "function"
    },
    {
      "inputs": [
        {
          "internalType": "address",
          "name": "recipient",
          "type": "address"
        },
        {
          "internalType": "uint256",
          "name": "amount",
          "type": "uint256"
        }
      ],
      "name": "transfer",
      "outputs": [
        {
          "internalType": "bool",
          "name": "",
          "type": "bool"
        }
      ],
      "stateMutability": "nonpayable",
      "type": "function"
    },
    {
      "inputs": [
        {
          "internalType": "address",
          "name": "sender",
          "type": "address"
        },
        {
          "internalType": "address",
          "name": "recipient",
          "type": "address"
        },
        {
          "internalType": "uint256",
          "name": "amount",
          "type": "uint256"
        }
      ],
      "name": "transferFrom",
      "outputs": [
        {
          "internalType": "bool",
          "name": "",
          "type": "bool"
        }
      ],
      "stateMutability": "nonpayable",
      "type": "function"
    },
    {
      "inputs": [
        {
          "internalType": "address",
          "name": "_newMinter",
          "type": "address"
        }
      ],
      "name": "passMinterRole",
      "outputs": [],
      "stateMutability": "nonpayable",
      "type": "function"
    },
    {
      "inputs": [
        {
          "internalType": "address",
          "name": "_account",
          "type": "address"
        },
        {
          "internalType": "uint256",
          "name": "_amount",
          "type": "uint256"
        }
      ],
      "name": "mint",
      "outputs": [],
      "stateMutability": "nonpayable",
      "type": "function"
    },
    {
      "inputs": [
        {
          "internalType": "address",
          "name": "_account",
          "type": "address"
        },
        {
          "internalType": "uint256",
          "name": "_amount",
          "type": "uint256"
        }
      ],
      "name": "burn",
      "outputs": [],
      "stateMutability": "nonpayable",
      "type": "function"
    }
  ],
  "bytecode": "0x60806040523480156200001157600080fd5b506040518060400160405280600981526020017f4e465446546f6b656e00000000000000000000000000000000000000000000008152506040518060400160405280600481526020017f4e465446000000000000000000000000000000000000000000000000000000008152508160039080519060200190620000969291906200013a565b508060049080519060200190620000af9291906200013a565b50505033600560006101000a81548173ffffffffffffffffffffffffffffffffffffffff021916908373ffffffffffffffffffffffffffffffffffffffff16021790555033600660006101000a81548173ffffffffffffffffffffffffffffffffffffffff021916908373ffffffffffffffffffffffffffffffffffffffff1602179055506200024f565b8280546200014890620001ea565b90600052602060002090601f0160209004810192826200016c5760008555620001b8565b82601f106200018757805160ff1916838001178555620001b8565b82800160010185558215620001b8579182015b82811115620001b75782518255916020019190600101906200019a565b5b509050620001c79190620001cb565b5090565b5b80821115620001e6576000816000905550600101620001cc565b5090565b600060028204905060018216806200020357607f821691505b602082108114156200021a576200021962000220565b5b50919050565b7f4e487b7100000000000000000000000000000000000000000000000000000000600052602260045260246000fd5b611cfc806200025f6000396000f3fe608060405234801561001057600080fd5b5060043610610107576000357c01000000000000000000000000000000000000000000000000000000009004806370a08231116100a9578063a457c2d711610083578063a457c2d71461027c578063a9059cbb146102ac578063d7fc5b15146102dc578063dd62ed3e146102f857610107565b806370a082311461021257806395d89b41146102425780639dc29fac1461026057610107565b806323b872dd116100e557806323b872dd14610178578063313ce567146101a857806339509351146101c657806340c10f19146101f657610107565b806306fdde031461010c578063095ea7b31461012a57806318160ddd1461015a575b600080fd5b610114610328565b604051610121919061155e565b60405180910390f35b610144600480360381019061013f91906112c1565b6103ba565b6040516101519190611543565b60405180910390f35b6101626103d8565b60405161016f9190611700565b60405180910390f35b610192600480360381019061018d919061126e565b6103e2565b60405161019f9190611543565b60405180910390f35b6101b06104da565b6040516101bd919061171b565b60405180910390f35b6101e060048036038101906101db91906112c1565b6104e3565b6040516101ed9190611543565b60405180910390f35b610210600480360381019061020b91906112c1565b61058f565b005b61022c60048036038101906102279190611201565b61062d565b6040516102399190611700565b60405180910390f35b61024a610675565b604051610257919061155e565b60405180910390f35b61027a600480360381019061027591906112c1565b610707565b005b610296600480360381019061029191906112c1565b6107a5565b6040516102a39190611543565b60405180910390f35b6102c660048036038101906102c191906112c1565b610890565b6040516102d39190611543565b60405180910390f35b6102f660048036038101906102f19190611201565b6108ae565b005b610312600480360381019061030d919061122e565b6109bb565b60405161031f9190611700565b60405180910390f35b60606003805461033790611864565b80601f016020809104026020016040519081016040528092919081815260200182805461036390611864565b80156103b05780601f10610385576101008083540402835291602001916103b0565b820191906000526020600020905b81548152906001019060200180831161039357829003601f168201915b5050505050905090565b60006103ce6103c7610a42565b8484610a4a565b6001905092915050565b6000600254905090565b60006103ef848484610c15565b6000600160008673ffffffffffffffffffffffffffffffffffffffff1673ffffffffffffffffffffffffffffffffffffffff168152602001908152602001600020600061043a610a42565b73ffffffffffffffffffffffffffffffffffffffff1673ffffffffffffffffffffffffffffffffffffffff168152602001908152602001600020549050828110156104ba576040517f08c379a00000000000000000000000000000000000000000000000000000000081526004016104b190611620565b60405180910390fd5b6104ce856104c6610a42565b858403610a4a565b60019150509392505050565b60006012905090565b60006105856104f0610a42565b8484600160006104fe610a42565b73ffffffffffffffffffffffffffffffffffffffff1673ffffffffffffffffffffffffffffffffffffffff16815260200190815260200160002060008873ffffffffffffffffffffffffffffffffffffffff1673ffffffffffffffffffffffffffffffffffffffff168152602001908152602001600020546105809190611752565b610a4a565b6001905092915050565b600660009054906101000a900473ffffffffffffffffffffffffffffffffffffffff1673ffffffffffffffffffffffffffffffffffffffff163373ffffffffffffffffffffffffffffffffffffffff161461061f576040517f08c379a0000000000000000000000000000000000000000000000000000000008152600401610616906116a0565b60405180910390fd5b6106298282610e96565b5050565b60008060008373ffffffffffffffffffffffffffffffffffffffff1673ffffffffffffffffffffffffffffffffffffffff168152602001908152602001600020549050919050565b60606004805461068490611864565b80601f01602080910402602001604051908101604052809291908181526020018280546106b090611864565b80156106fd5780601f106106d2576101008083540402835291602001916106fd565b820191906000526020600020905b8154815290600101906020018083116106e057829003601f168201915b5050505050905090565b600660009054906101000a900473ffffffffffffffffffffffffffffffffffffffff1673ffffffffffffffffffffffffffffffffffffffff163373ffffffffffffffffffffffffffffffffffffffff1614610797576040517f08c379a000000000000000000000000000000000000000000000000000000000815260040161078e906116a0565b60405180910390fd5b6107a18282610ff6565b5050565b600080600160006107b4610a42565b73ffffffffffffffffffffffffffffffffffffffff1673ffffffffffffffffffffffffffffffffffffffff16815260200190815260200160002060008573ffffffffffffffffffffffffffffffffffffffff1673ffffffffffffffffffffffffffffffffffffffff16815260200190815260200160002054905082811015610871576040517f08c379a0000000000000000000000000000000000000000000000000000000008152600401610868906116c0565b60405180910390fd5b61088561087c610a42565b85858403610a4a565b600191505092915050565b60006108a461089d610a42565b8484610c15565b6001905092915050565b600560009054906101000a900473ffffffffffffffffffffffffffffffffffffffff1673ffffffffffffffffffffffffffffffffffffffff163373ffffffffffffffffffffffffffffffffffffffff161461093e576040517f08c379a000000000000000000000000000000000000000000000000000000000815260040161093590611600565b60405180910390fd5b80600660006101000a81548173ffffffffffffffffffffffffffffffffffffffff021916908373ffffffffffffffffffffffffffffffffffffffff1602179055507f3b0007eb941cf645526cbb3a4fdaecda9d28ce4843167d9263b536a1f1edc0f633826040516109b092919061151a565b60405180910390a150565b6000600160008473ffffffffffffffffffffffffffffffffffffffff1673ffffffffffffffffffffffffffffffffffffffff16815260200190815260200160002060008373ffffffffffffffffffffffffffffffffffffffff1673ffffffffffffffffffffffffffffffffffffffff16815260200190815260200160002054905092915050565b600033905090565b600073ffffffffffffffffffffffffffffffffffffffff168373ffffffffffffffffffffffffffffffffffffffff161415610aba576040517f08c379a0000000000000000000000000000000000000000000000000000000008152600401610ab190611680565b60405180910390fd5b600073ffffffffffffffffffffffffffffffffffffffff168273ffffffffffffffffffffffffffffffffffffffff161415610b2a576040517f08c379a0000000000000000000000000000000000000000000000000000000008152600401610b21906115c0565b60405180910390fd5b80600160008573ffffffffffffffffffffffffffffffffffffffff1673ffffffffffffffffffffffffffffffffffffffff16815260200190815260200160002060008473ffffffffffffffffffffffffffffffffffffffff1673ffffffffffffffffffffffffffffffffffffffff168152602001908152602001600020819055508173ffffffffffffffffffffffffffffffffffffffff168373ffffffffffffffffffffffffffffffffffffffff167f8c5be1e5ebec7d5bd14f71427d1e84f3dd0314c0f7b2291e5b200ac8c7c3b92583604051610c089190611700565b60405180910390a3505050565b600073ffffffffffffffffffffffffffffffffffffffff168373ffffffffffffffffffffffffffffffffffffffff161415610c85576040517f08c379a0000000000000000000000000000000000000000000000000000000008152600401610c7c90611660565b60405180910390fd5b600073ffffffffffffffffffffffffffffffffffffffff168273ffffffffffffffffffffffffffffffffffffffff161415610cf5576040517f08c379a0000000000000000000000000000000000000000000000000000000008152600401610cec90611580565b60405180910390fd5b610d008383836111cd565b60008060008573ffffffffffffffffffffffffffffffffffffffff1673ffffffffffffffffffffffffffffffffffffffff16815260200190815260200160002054905081811015610d86576040517f08c379a0000000000000000000000000000000000000000000000000000000008152600401610d7d906115e0565b60405180910390fd5b8181036000808673ffffffffffffffffffffffffffffffffffffffff1673ffffffffffffffffffffffffffffffffffffffff16815260200190815260200160002081905550816000808573ffffffffffffffffffffffffffffffffffffffff1673ffffffffffffffffffffffffffffffffffffffff1681526020019081526020016000206000828254610e199190611752565b925050819055508273ffffffffffffffffffffffffffffffffffffffff168473ffffffffffffffffffffffffffffffffffffffff167fddf252ad1be2c89b69c2b068fc378daa952ba7f163c4a11628f55a4df523b3ef84604051610e7d9190611700565b60405180910390a3610e908484846111d2565b50505050565b600073ffffffffffffffffffffffffffffffffffffffff168273ffffffffffffffffffffffffffffffffffffffff161415610f06576040517f08c379a0000000000000000000000000000000000000000000000000000000008152600401610efd906116e0565b60405180910390fd5b610f12600083836111cd565b8060026000828254610f249190611752565b92505081905550806000808473ffffffffffffffffffffffffffffffffffffffff1673ffffffffffffffffffffffffffffffffffffffff1681526020019081526020016000206000828254610f799190611752565b925050819055508173ffffffffffffffffffffffffffffffffffffffff16600073ffffffffffffffffffffffffffffffffffffffff167fddf252ad1be2c89b69c2b068fc378daa952ba7f163c4a11628f55a4df523b3ef83604051610fde9190611700565b60405180910390a3610ff2600083836111d2565b5050565b600073ffffffffffffffffffffffffffffffffffffffff168273ffffffffffffffffffffffffffffffffffffffff161415611066576040517f08c379a000000000000000000000000000000000000000000000000000000000815260040161105d90611640565b60405180910390fd5b611072826000836111cd565b60008060008473ffffffffffffffffffffffffffffffffffffffff1673ffffffffffffffffffffffffffffffffffffffff168152602001908152602001600020549050818110156110f8576040517f08c379a00000000000000000000000000000000000000000000000000000000081526004016110ef906115a0565b60405180910390fd5b8181036000808573ffffffffffffffffffffffffffffffffffffffff1673ffffffffffffffffffffffffffffffffffffffff16815260200190815260200160002081905550816002600082825461114f91906117a8565b92505081905550600073ffffffffffffffffffffffffffffffffffffffff168373ffffffffffffffffffffffffffffffffffffffff167fddf252ad1be2c89b69c2b068fc378daa952ba7f163c4a11628f55a4df523b3ef846040516111b49190611700565b60405180910390a36111c8836000846111d2565b505050565b505050565b505050565b6000813590506111e681611c98565b92915050565b6000813590506111fb81611caf565b92915050565b600060208284031215611217576112166118f4565b5b6000611225848285016111d7565b91505092915050565b60008060408385031215611245576112446118f4565b5b6000611253858286016111d7565b9250506020611264858286016111d7565b9150509250929050565b600080600060608486031215611287576112866118f4565b5b6000611295868287016111d7565b93505060206112a6868287016111d7565b92505060406112b7868287016111ec565b9150509250925092565b600080604083850312156112d8576112d76118f4565b5b60006112e6858286016111d7565b92505060206112f7858286016111ec565b9150509250929050565b61130a816117dc565b82525050565b611319816117ee565b82525050565b600061132a82611736565b6113348185611741565b9350611344818560208601611831565b61134d816118f9565b840191505092915050565b6000611365602383611741565b91506113708261190a565b604082019050919050565b6000611388602283611741565b915061139382611959565b604082019050919050565b60006113ab602283611741565b91506113b6826119a8565b604082019050919050565b60006113ce602683611741565b91506113d9826119f7565b604082019050919050565b60006113f1602483611741565b91506113fc82611a46565b604082019050919050565b6000611414602883611741565b915061141f82611a95565b604082019050919050565b6000611437602183611741565b915061144282611ae4565b604082019050919050565b600061145a602583611741565b915061146582611b33565b604082019050919050565b600061147d602483611741565b915061148882611b82565b604082019050919050565b60006114a0602683611741565b91506114ab82611bd1565b604082019050919050565b60006114c3602583611741565b91506114ce82611c20565b604082019050919050565b60006114e6601f83611741565b91506114f182611c6f565b602082019050919050565b6115058161181a565b82525050565b61151481611824565b82525050565b600060408201905061152f6000830185611301565b61153c6020830184611301565b9392505050565b60006020820190506115586000830184611310565b92915050565b60006020820190508181036000830152611578818461131f565b905092915050565b6000602082019050818103600083015261159981611358565b9050919050565b600060208201905081810360008301526115b98161137b565b9050919050565b600060208201905081810360008301526115d98161139e565b9050919050565b600060208201905081810360008301526115f9816113c1565b9050919050565b60006020820190508181036000830152611619816113e4565b9050919050565b6000602082019050818103600083015261163981611407565b9050919050565b600060208201905081810360008301526116598161142a565b9050919050565b600060208201905081810360008301526116798161144d565b9050919050565b6000602082019050818103600083015261169981611470565b9050919050565b600060208201905081810360008301526116b981611493565b9050919050565b600060208201905081810360008301526116d9816114b6565b9050919050565b600060208201905081810360008301526116f9816114d9565b9050919050565b600060208201905061171560008301846114fc565b92915050565b6000602082019050611730600083018461150b565b92915050565b600081519050919050565b600082825260208201905092915050565b600061175d8261181a565b91506117688361181a565b9250827fffffffffffffffffffffffffffffffffffffffffffffffffffffffffffffffff0382111561179d5761179c611896565b5b828201905092915050565b60006117b38261181a565b91506117be8361181a565b9250828210156117d1576117d0611896565b5b828203905092915050565b60006117e7826117fa565b9050919050565b60008115159050919050565b600073ffffffffffffffffffffffffffffffffffffffff82169050919050565b6000819050919050565b600060ff82169050919050565b60005b8381101561184f578082015181840152602081019050611834565b8381111561185e576000848401525b50505050565b6000600282049050600182168061187c57607f821691505b602082108114156118905761188f6118c5565b5b50919050565b7f4e487b7100000000000000000000000000000000000000000000000000000000600052601160045260246000fd5b7f4e487b7100000000000000000000000000000000000000000000000000000000600052602260045260246000fd5b600080fd5b6000601f19601f8301169050919050565b7f45524332303a207472616e7366657220746f20746865207a65726f206164647260008201527f6573730000000000000000000000000000000000000000000000000000000000602082015250565b7f45524332303a206275726e20616d6f756e7420657863656564732062616c616e60008201527f6365000000000000000000000000000000000000000000000000000000000000602082015250565b7f45524332303a20617070726f766520746f20746865207a65726f20616464726560008201527f7373000000000000000000000000000000000000000000000000000000000000602082015250565b7f45524332303a207472616e7366657220616d6f756e742065786365656473206260008201527f616c616e63650000000000000000000000000000000000000000000000000000602082015250565b7f6f6e6c7920746865206f776e65722063616e2063616c6c20746869732066756e60008201527f63746f6e00000000000000000000000000000000000000000000000000000000602082015250565b7f45524332303a207472616e7366657220616d6f756e742065786365656473206160008201527f6c6c6f77616e6365000000000000000000000000000000000000000000000000602082015250565b7f45524332303a206275726e2066726f6d20746865207a65726f2061646472657360008201527f7300000000000000000000000000000000000000000000000000000000000000602082015250565b7f45524332303a207472616e736665722066726f6d20746865207a65726f20616460008201527f6472657373000000000000000000000000000000000000000000000000000000602082015250565b7f45524332303a20617070726f76652066726f6d20746865207a65726f2061646460008201527f7265737300000000000000000000000000000000000000000000000000000000602082015250565b7f6f6e6c7920746865206d696e7465722063616e2063616c6c207468697320667560008201527f6e6374696f6e0000000000000000000000000000000000000000000000000000602082015250565b7f45524332303a2064656372656173656420616c6c6f77616e63652062656c6f7760008201527f207a65726f000000000000000000000000000000000000000000000000000000602082015250565b7f45524332303a206d696e7420746f20746865207a65726f206164647265737300600082015250565b611ca1816117dc565b8114611cac57600080fd5b50565b611cb88161181a565b8114611cc357600080fd5b5056fea2646970667358221220cea3b2b7381d2ea30d3bcc577500ce92e813c6c5a4acbaebb631d3ad13628c8264736f6c63430008050033",
  "immutableReferences": {},
  "source": "// SPDX-License-Identifier: MIT\npragma solidity ^0.8.0;\n\nimport \"@openzeppelin/contracts/token/ERC20/ERC20.sol\";\n\ncontract NFTFToken is ERC20 {\n    address owner;\n    address minter;\n\n    event MinterChanged(address oldMinter, address newMinter);\n\n    constructor() ERC20(\"NFTFToken\", \"NFTF\") {\n        owner = msg.sender;\n        minter = msg.sender;\n    }\n\n    modifier onlyOwner() {\n        require(msg.sender == owner, \"only the owner can call this functon\");\n        _;\n    }\n\n    modifier onlyMinter() {\n        require(msg.sender == minter, \"only the minter can call this function\");\n        _;\n    }\n\n    function passMinterRole(address _newMinter) external onlyOwner {\n        minter = _newMinter;\n        emit MinterChanged(msg.sender, _newMinter);\n    }\n\n    function mint(address _account, uint256 _amount) external onlyMinter {\n        _mint(_account, _amount);\n    }\n\n    function burn(address _account, uint256 _amount) external onlyMinter {\n        _burn(_account, _amount);\n    }\n}\n",
  "sourcePath": "/Users/liyang/src/NFT-Liquidity/NFT-Liquidity-Contract/contracts/NFTFToken.sol",
  "compiler": {
    "name": "solc",
    "version": "0.8.5+commit.a4f2e591.Emscripten.clang"
  },
  "schemaVersion": "3.4.3",
  "updatedAt": "2021-10-14T05:21:57.100Z",
  "devdoc": {
    "kind": "dev",
    "methods": {
      "allowance(address,address)": {
        "details": "See {IERC20-allowance}."
      },
      "approve(address,uint256)": {
        "details": "See {IERC20-approve}. Requirements: - `spender` cannot be the zero address."
      },
      "balanceOf(address)": {
        "details": "See {IERC20-balanceOf}."
      },
      "decimals()": {
        "details": "Returns the number of decimals used to get its user representation. For example, if `decimals` equals `2`, a balance of `505` tokens should be displayed to a user as `5.05` (`505 / 10 ** 2`). Tokens usually opt for a value of 18, imitating the relationship between Ether and Wei. This is the value {ERC20} uses, unless this function is overridden; NOTE: This information is only used for _display_ purposes: it in no way affects any of the arithmetic of the contract, including {IERC20-balanceOf} and {IERC20-transfer}."
      },
      "decreaseAllowance(address,uint256)": {
        "details": "Atomically decreases the allowance granted to `spender` by the caller. This is an alternative to {approve} that can be used as a mitigation for problems described in {IERC20-approve}. Emits an {Approval} event indicating the updated allowance. Requirements: - `spender` cannot be the zero address. - `spender` must have allowance for the caller of at least `subtractedValue`."
      },
      "increaseAllowance(address,uint256)": {
        "details": "Atomically increases the allowance granted to `spender` by the caller. This is an alternative to {approve} that can be used as a mitigation for problems described in {IERC20-approve}. Emits an {Approval} event indicating the updated allowance. Requirements: - `spender` cannot be the zero address."
      },
      "name()": {
        "details": "Returns the name of the token."
      },
      "symbol()": {
        "details": "Returns the symbol of the token, usually a shorter version of the name."
      },
      "totalSupply()": {
        "details": "See {IERC20-totalSupply}."
      },
      "transfer(address,uint256)": {
        "details": "See {IERC20-transfer}. Requirements: - `recipient` cannot be the zero address. - the caller must have a balance of at least `amount`."
      },
      "transferFrom(address,address,uint256)": {
        "details": "See {IERC20-transferFrom}. Emits an {Approval} event indicating the updated allowance. This is not required by the EIP. See the note at the beginning of {ERC20}. Requirements: - `sender` and `recipient` cannot be the zero address. - `sender` must have a balance of at least `amount`. - the caller must have allowance for ``sender``'s tokens of at least `amount`."
      }
    },
    "version": 1
  },
  "userdoc": {
    "kind": "user",
    "methods": {},
    "version": 1
  }
}